{
  "abi": [
    {
      "inputs": [],
      "stateMutability": "nonpayable",
      "type": "constructor"
    },
    {
      "inputs": [],
      "name": "getOwner",
      "outputs": [
        {
          "internalType": "address",
          "name": "",
          "type": "address"
        }
      ],
      "stateMutability": "view",
      "type": "function"
    },
    {
      "inputs": [],
      "name": "getStore",
      "outputs": [
        {
          "internalType": "address",
          "name": "",
          "type": "address"
        },
        {
          "internalType": "uint256",
          "name": "",
          "type": "uint256"
        }
      ],
      "stateMutability": "view",
      "type": "function"
    },
    {
      "inputs": [
        {
          "internalType": "uint256",
          "name": "amount",
          "type": "uint256"
        }
      ],
      "name": "store",
      "outputs": [],
      "stateMutability": "nonpayable",
      "type": "function"
    }
  ],
  "bytecode": {
    "object": "0x60a060405234801561001057600080fd5b503360805260805161015d61002f600039600060aa015261015d6000f3fe608060405234801561001057600080fd5b50600436106100415760003560e01c80636057361d14610046578063893d20e81461009d578063c2722ecc146100d9575b600080fd5b61009b61005436600461010e565b604080518082018252338082526020808301948552600091825281905291909120905181546001600160a01b0319166001600160a01b039091161781559051600190910155565b005b6040516001600160a01b037f00000000000000000000000000000000000000000000000000000000000000001681526020015b60405180910390f35b3360009081526020818152604091829020805460019091015483516001600160a01b03909216825291810191909152016100d0565b60006020828403121561012057600080fd5b503591905056fea264697066735822122010f10b5753084bfdbec15408f92a1108c59ea033fa6c28a44e38194642cb48fb64736f6c63430008150033",
    "linkReferences": {}
  },
  "methodIdentifiers": {
    "getOwner()": "893d20e8",
    "getStore()": "c2722ecc",
    "store(uint256)": "6057361d"
  },
  "id": 0
}