{
  "abi": [
    {
      "constant": false,
      "inputs": [
        {
          "name": "_amount",
          "type": "uint256"
        }
      ],
      "name": "store",
      "outputs": [],
      "payable": false,
      "stateMutability": "nonpayable",
      "type": "function"
    },
    {
      "constant": true,
      "inputs": [],
      "name": "getOwner",
      "outputs": [
        {
          "name": "",
          "type": "address"
        }
      ],
      "payable": false,
      "stateMutability": "view",
      "type": "function"
    },
    {
      "constant": true,
      "inputs": [],
      "name": "getStore",
      "outputs": [
        {
          "name": "",
          "type": "address"
        },
        {
          "name": "",
          "type": "uint256"
        }
      ],
      "payable": false,
      "stateMutability": "view",
      "type": "function"
    },
    {
      "inputs": [],
      "payable": false,
      "stateMutability": "nonpayable",
      "type": "constructor"
    }
  ],
  "bytecode": {
    "object": "0x608060405234801561001057600080fd5b5060008054600160a060020a031916331790556101b6806100326000396000f30060806040526004361061003a5760003560e01c63ffffffff1680636057361d1461003f578063893d20e814610059578063c2722ecc14610097575b600080fd5b34801561004b57600080fd5b506100576004356100dc565b005b34801561006557600080fd5b5061006e61013c565b6040805173ffffffffffffffffffffffffffffffffffffffff9092168252519081900360200190f35b3480156100a357600080fd5b506100ac610158565b6040805173ffffffffffffffffffffffffffffffffffffffff909316835260208301919091528051918290030190f35b600080543373ffffffffffffffffffffffffffffffffffffffff199182168117808455600194855590835260208490526040909220805473ffffffffffffffffffffffffffffffffffffffff909316929091169190911781558154910155565b60005473ffffffffffffffffffffffffffffffffffffffff1690565b336000908152600160208190526040909120805491015473ffffffffffffffffffffffffffffffffffffffff909116915600a165627a7a723058207a8be48cc41eedd378a4b8dbf9ad89547c1efde92df95d8dca8974ab27c3ad6f0029",
    "linkReferences": {}
  },
  "methodIdentifiers": {
    "getOwner()": "893d20e8",
    "getStore()": "c2722ecc",
    "store(uint256)": "6057361d"
  },
  "id": 0
}